{
  "contractName": "TestToken",
  "abi": [
    {
      "anonymous": false,
      "inputs": [
        {
          "indexed": false,
          "internalType": "address",
          "name": "Minter",
          "type": "address"
        },
        {
          "indexed": false,
          "internalType": "uint256",
          "name": "Amount",
          "type": "uint256"
        }
      ],
      "name": "Mint",
      "type": "event"
    },
    {
      "inputs": [
        {
          "internalType": "address",
          "name": "",
          "type": "address"
        }
      ],
      "name": "balance",
      "outputs": [
        {
          "internalType": "uint256",
          "name": "",
          "type": "uint256"
        }
      ],
      "stateMutability": "view",
      "type": "function"
    },
    {
      "inputs": [],
      "name": "totalSupply",
      "outputs": [
        {
          "internalType": "uint256",
          "name": "",
          "type": "uint256"
        }
      ],
      "stateMutability": "view",
      "type": "function"
    },
    {
      "inputs": [
        {
          "internalType": "uint256",
          "name": "_amount",
          "type": "uint256"
        }
      ],
      "name": "mint",
      "outputs": [],
      "stateMutability": "nonpayable",
      "type": "function"
    }
  ],
  "bytecode": "0x608060405234801561001057600080fd5b50610369806100206000396000f3fe608060405234801561001057600080fd5b50600436106100415760003560e01c806318160ddd14610046578063a0712d6814610064578063e3d670d714610080575b600080fd5b61004e6100b0565b60405161005b9190610229565b60405180910390f35b61007e600480360381019061007991906101b9565b6100b6565b005b61009a60048036038101906100959190610190565b61014e565b6040516100a79190610229565b60405180910390f35b60005481565b806000808282546100c79190610244565b9250508190555080600160003373ffffffffffffffffffffffffffffffffffffffff1673ffffffffffffffffffffffffffffffffffffffff168152602001908152602001600020819055507f0f6798a560793a54c3bcfe86a93cde1e73087d944c0ea20544137d41213968853382604051610143929190610200565b60405180910390a150565b60016020528060005260406000206000915090505481565b60008135905061017581610305565b92915050565b60008135905061018a8161031c565b92915050565b6000602082840312156101a257600080fd5b60006101b084828501610166565b91505092915050565b6000602082840312156101cb57600080fd5b60006101d98482850161017b565b91505092915050565b6101eb8161029a565b82525050565b6101fa816102cc565b82525050565b600060408201905061021560008301856101e2565b61022260208301846101f1565b9392505050565b600060208201905061023e60008301846101f1565b92915050565b600061024f826102cc565b915061025a836102cc565b9250827fffffffffffffffffffffffffffffffffffffffffffffffffffffffffffffffff0382111561028f5761028e6102d6565b5b828201905092915050565b60006102a5826102ac565b9050919050565b600073ffffffffffffffffffffffffffffffffffffffff82169050919050565b6000819050919050565b7f4e487b7100000000000000000000000000000000000000000000000000000000600052601160045260246000fd5b61030e8161029a565b811461031957600080fd5b50565b610325816102cc565b811461033057600080fd5b5056fea264697066735822122090887ea555694ba7c2f651b0f5998598168ae5b47288ba79b41023e71d30e68064736f6c63430008000033",
  "immutableReferences": {},
  "source": "// SPDX-License-Identifier: MIT\r\npragma solidity ^0.8.0;\r\n\r\ncontract TestToken {\r\n    uint256 public totalSupply;\r\n    \r\n    mapping (address => uint256) public balance;\r\n\r\n    event Mint(address Minter, uint256 Amount);\r\n\r\n    function mint(uint256 _amount) public {\r\n        totalSupply += _amount;\r\n        balance[msg.sender] = _amount;\r\n        emit Mint(msg.sender, _amount);\r\n    }\r\n\r\n}",
  "sourcePath": "D:/Documents/myProject/INTERVIEW/dobby_bridgegaps/eth-bsc-decentralized-bridge/contracts/TestToken.sol",
  "compiler": {
    "name": "solc",
    "version": "0.8.0+commit.c7dfd78e.Emscripten.clang"
  },
  "schemaVersion": "3.4.1",
  "updatedAt": "2022-01-07T07:53:18.921Z",
  "devdoc": {
    "kind": "dev",
    "methods": {},
    "version": 1
  },
  "userdoc": {
    "kind": "user",
    "methods": {},
    "version": 1
  }
}